{
  "contractName": "PolygonDIDRegistry",
  "abi": [
    {
      "anonymous": false,
      "inputs": [
        {
          "indexed": false,
          "name": "id",
          "type": "address"
        },
        {
          "indexed": false,
          "name": "doc",
          "type": "string"
        }
      ],
      "name": "CreateDID",
      "type": "event"
    },
    {
      "anonymous": false,
      "inputs": [
        {
          "indexed": false,
          "name": "id",
          "type": "address"
        },
        {
          "indexed": false,
          "name": "doc",
          "type": "string"
        }
      ],
      "name": "UpdateDID",
      "type": "event"
    },
    {
      "anonymous": false,
      "inputs": [
        {
          "indexed": false,
          "name": "id",
          "type": "address"
        }
      ],
      "name": "DeleteDID",
      "type": "event"
    },
    {
      "constant": false,
      "inputs": [
        {
          "name": "_id",
          "type": "address"
        },
        {
          "name": "_doc",
          "type": "string"
        }
      ],
      "name": "createDID",
      "outputs": [
        {
          "name": "",
          "type": "address"
        }
      ],
      "payable": false,
      "stateMutability": "nonpayable",
      "type": "function"
    },
    {
      "constant": true,
      "inputs": [
        {
          "name": "_id",
          "type": "address"
        }
      ],
      "name": "getDID",
      "outputs": [
        {
          "name": "",
          "type": "string"
        }
      ],
      "payable": false,
      "stateMutability": "view",
      "type": "function"
    },
    {
      "constant": false,
      "inputs": [
        {
          "name": "_id",
          "type": "address"
        },
        {
          "name": "_doc",
          "type": "string"
        }
      ],
      "name": "updateDID",
      "outputs": [],
      "payable": false,
      "stateMutability": "nonpayable",
      "type": "function"
    },
    {
      "constant": false,
      "inputs": [
        {
          "name": "_id",
          "type": "address"
        }
      ],
      "name": "deleteDID",
      "outputs": [],
      "payable": false,
      "stateMutability": "nonpayable",
      "type": "function"
    }
  ],
  "bytecode": "0x608060405234801561001057600080fd5b50610c7b806100206000396000f3fe60806040526004361061005c576000357c01000000000000000000000000000000000000000000000000000000009004806325f2ac621461006157806363d61166146101495780637f52e0a714610271578063f64e30b0146102c2575b600080fd5b34801561006d57600080fd5b506101476004803603604081101561008457600080fd5b81019080803573ffffffffffffffffffffffffffffffffffffffff169060200190929190803590602001906401000000008111156100c157600080fd5b8201836020820111156100d357600080fd5b803590602001918460018302840111640100000000831117156100f557600080fd5b91908080601f016020809104026020016040519081016040528093929190818152602001838380828437600081840152601f19601f82011690508083019250505050505050919291929050505061038c565b005b34801561015557600080fd5b5061022f6004803603604081101561016c57600080fd5b81019080803573ffffffffffffffffffffffffffffffffffffffff169060200190929190803590602001906401000000008111156101a957600080fd5b8201836020820111156101bb57600080fd5b803590602001918460018302840111640100000000831117156101dd57600080fd5b91908080601f016020809104026020016040519081016040528093929190818152602001838380828437600081840152601f19601f820116905080830192505050505050509192919290505050610628565b604051808273ffffffffffffffffffffffffffffffffffffffff1673ffffffffffffffffffffffffffffffffffffffff16815260200191505060405180910390f35b34801561027d57600080fd5b506102c06004803603602081101561029457600080fd5b81019080803573ffffffffffffffffffffffffffffffffffffffff169060200190929190505050610865565b005b3480156102ce57600080fd5b50610311600480360360208110156102e557600080fd5b81019080803573ffffffffffffffffffffffffffffffffffffffff169060200190929190505050610a7f565b6040518080602001828103825283818151815260200191508051906020019080838360005b83811015610351578082015181840152602081019050610336565b50505050905090810190601f16801561037e5780820380516001836020036101000a031916815260200191505b509250505060405180910390f35b813373ffffffffffffffffffffffffffffffffffffffff166000808373ffffffffffffffffffffffffffffffffffffffff1673ffffffffffffffffffffffffffffffffffffffff16815260200190815260200160002060000160009054906101000a900473ffffffffffffffffffffffffffffffffffffffff1673ffffffffffffffffffffffffffffffffffffffff161415156104b7576040517f08c379a00000000000000000000000000000000000000000000000000000000081526004018080602001828103825260218152602001807f73656e64657220686173206e6f20636f6e74726f6c206f66207468697320444981526020017f440000000000000000000000000000000000000000000000000000000000000081525060400191505060405180910390fd5b816000808573ffffffffffffffffffffffffffffffffffffffff1673ffffffffffffffffffffffffffffffffffffffff168152602001908152602001600020600301908051906020019061050c929190610b62565b50426000808573ffffffffffffffffffffffffffffffffffffffff1673ffffffffffffffffffffffffffffffffffffffff168152602001908152602001600020600201819055507f041dc09911ff9979232f5fbf660eeaaeb5b9c3956684944ab7f764ac6dfb8c608383604051808373ffffffffffffffffffffffffffffffffffffffff1673ffffffffffffffffffffffffffffffffffffffff16815260200180602001828103825283818151815260200191508051906020019080838360005b838110156105e85780820151818401526020810190506105cd565b50505050905090810190601f1680156106155780820380516001836020036101000a031916815260200191505b50935050505060405180910390a1505050565b6000336000808573ffffffffffffffffffffffffffffffffffffffff1673ffffffffffffffffffffffffffffffffffffffff16815260200190815260200160002060000160006101000a81548173ffffffffffffffffffffffffffffffffffffffff021916908373ffffffffffffffffffffffffffffffffffffffff160217905550426000808573ffffffffffffffffffffffffffffffffffffffff1673ffffffffffffffffffffffffffffffffffffffff16815260200190815260200160002060010181905550426000808573ffffffffffffffffffffffffffffffffffffffff1673ffffffffffffffffffffffffffffffffffffffff16815260200190815260200160002060020181905550816000808573ffffffffffffffffffffffffffffffffffffffff1673ffffffffffffffffffffffffffffffffffffffff168152602001908152602001600020600301908051906020019061078b929190610b62565b507f88ea8be5dbc763d51aac13974a2d98ebdaa6648e43e07b96770fe586124c92af8383604051808373ffffffffffffffffffffffffffffffffffffffff1673ffffffffffffffffffffffffffffffffffffffff16815260200180602001828103825283818151815260200191508051906020019080838360005b83811015610821578082015181840152602081019050610806565b50505050905090810190601f16801561084e5780820380516001836020036101000a031916815260200191505b50935050505060405180910390a182905092915050565b803373ffffffffffffffffffffffffffffffffffffffff166000808373ffffffffffffffffffffffffffffffffffffffff1673ffffffffffffffffffffffffffffffffffffffff16815260200190815260200160002060000160009054906101000a900473ffffffffffffffffffffffffffffffffffffffff1673ffffffffffffffffffffffffffffffffffffffff16141515610990576040517f08c379a00000000000000000000000000000000000000000000000000000000081526004018080602001828103825260218152602001807f73656e64657220686173206e6f20636f6e74726f6c206f66207468697320444981526020017f440000000000000000000000000000000000000000000000000000000000000081525060400191505060405180910390fd5b6000808373ffffffffffffffffffffffffffffffffffffffff1673ffffffffffffffffffffffffffffffffffffffff168152602001908152602001600020600080820160006101000a81549073ffffffffffffffffffffffffffffffffffffffff021916905560018201600090556002820160009055600382016000610a169190610be2565b50507fb7542c723b196c87c43e9a6d4607bcf8182e6ea3002906d618ab0cd81bda8c9d82604051808273ffffffffffffffffffffffffffffffffffffffff1673ffffffffffffffffffffffffffffffffffffffff16815260200191505060405180910390a15050565b60606000808373ffffffffffffffffffffffffffffffffffffffff1673ffffffffffffffffffffffffffffffffffffffff1681526020019081526020016000206003018054600181600116156101000203166002900480601f016020809104026020016040519081016040528092919081815260200182805460018160011615610100020316600290048015610b565780601f10610b2b57610100808354040283529160200191610b56565b820191906000526020600020905b815481529060010190602001808311610b3957829003601f168201915b50505050509050919050565b828054600181600116156101000203166002900490600052602060002090601f016020900481019282601f10610ba357805160ff1916838001178555610bd1565b82800160010185558215610bd1579182015b82811115610bd0578251825591602001919060010190610bb5565b5b509050610bde9190610c2a565b5090565b50805460018160011615610100020316600290046000825580601f10610c085750610c27565b601f016020900490600052602060002090810190610c269190610c2a565b5b50565b610c4c91905b80821115610c48576000816000905550600101610c30565b5090565b9056fea165627a7a7230582008b6f2f7035736d3d904ee5b379971d87efd37dfc26fcbc09903e049fd3b0c000029",
  "source": "pragma solidity 0.5.1;\n\ncontract PolygonDIDRegistry {\n    struct PolyDID{\n        address controller;\n        uint created;\n        uint updated;\n        string doc;\n    }\n    modifier onlyController(address _id) {\n        require(did[_id].controller == msg.sender, \"sender has no control of this DID\");\n        _;\n    }\n\n    mapping(address => PolyDID) did;\n    event CreateDID(address id, string doc);\n    event UpdateDID(address id, string doc);\n    event DeleteDID(address id);\n\n    function createDID(address _id, string memory _doc) public returns(address){\n\n        did[_id].controller = msg.sender;\n        did[_id].created = now;\n        did[_id].updated = now;\n        did[_id].doc = _doc;\n        emit CreateDID(_id, _doc);\n        return _id;\n    }\n\n    function getDID(address _id) public view returns(string memory){\n        return did[_id].doc;\n    }\n\n    function updateDID(address _id, string memory _doc) public onlyController(_id){\n        did[_id].doc = _doc;\n        did[_id].updated = now;\n        emit UpdateDID(_id, _doc);\n    }\n\n    function deleteDID(address _id) public onlyController(_id){\n        delete did[_id];\n        emit DeleteDID(_id);\n    }\n}",
  "sourcePath": "/home/user/Documents/polygon-did/Polygon-Registry/contracts/PolygonDIDRegistry.sol",
  "compiler": {
    "name": "solc",
    "version": "0.5.1+commit.c8a2cb62.Emscripten.clang"
  },
  "schemaVersion": "3.3.4",
  "updatedAt": "2021-04-14T07:44:20.926Z",
  "networkType": "ethereum",
  "devdoc": {
    "methods": {}
  },
  "userdoc": {
    "methods": {}
  }
}